:100000000C308A00512C0000FF00030E8301A10078
:100010000A08A0008A010408A2007708A300780853
:10002000A4007908A5007A08A600831383128B1E0A
:100030001B280B192C28220884002308F700240809
:10004000F8002508F9002608FA0020088A00210E89
:100050008300FF0E7F0E09008A110A122F28AB0AB7
:100060000319AC0A2B088D3C031D60282C08203C8A
:10007000031D6028AC01AB01B10A0319B20AB20832
:10008000031D462831083B3C03184B28AF0A0319CF
:10009000B00AB201B101B008031D52282F083B3C41
:1000A00003185728AD0A0319AE0AB001AF01AE0814
:1000B000031D5E282D08173C03186028AE01AD0112
:1000C0000B118A110A121B28603084008313000868
:1000D000031977280630F800F701F70B6D28F80BA5
:1000E0006C287B30F700F70B7328800B6A28080018
:1000F00083168910831289141430E000642083165B
:1001000089108312891008008316091083120910C0
:100110008316880183125F08880078200800AA01EE
:100120003830A9002908DF008420AA010130A90085
:100130002908DF008420AA010C30A9002908DF006B
:100140008420AA010230A9002908DF0084208A1532
:100150000A12A62CF801F901F701FA015E08031D45
:10016000B4285D080319CE281030DF000310DB0D22
:10017000DC0DF70DFA0D5E087A02031DC1285D083B
:100180007702031CCA285D08F702031CFA035E0805
:10019000FA020314F80DF90DDF0BB62808008316D8
:1001A0000910831209148316880183125F088800DE
:1001B00078200800AA018030A9002908DF008420E7
:1001C0002E08DC002D08DB00DE010A30DD00AA204D
:1001D0007908B6007808B50030303507A700360832
:1001E000A8000318A80A2708DF00CF202E08DC008B
:1001F0002D08DB00DE010A30DD00AA207708B300FD
:100200007A08B40030303307A7003408A800031878
:10021000A80A2708DF00CF20A8013A30A700270846
:10022000DF00CF203008DC002F08DB00DE010A30C1
:10023000DD00AA207908BA007808B9003030390703
:10024000A7003A08A8000318A80A2708DF00CF2053
:100250003008DC002F08DB00DE010A30DD00AA20B8
:100260007708B7007A08B80030303707A700380899
:10027000A8000318A80A2708DF00CF20A8013A30F9
:10028000A7002708DF00CF203208DC003108DB00A0
:10029000DE010A30DD00AA207908BE007808BD0022
:1002A00030303D07A7003E08A8000318A80A270819
:1002B000DF00CF203208DC003108DB00DE010A302D
:1002C000DD00AA207708BB007A08BC0030303B076D
:1002D000A7003C08A8000318A80A2708DF00CF20C1
:1002E0008A150A12542D2330BF008316061083127C
:1002F0000610831686108312861483160611831245
:100300000615831686118312861583160616831228
:10031000061A9729831606168312061A972983163A
:1003200006168312061A97293130BF0085298316D5
:1003300086168312861AA929831686168312861AB0
:10034000A929831686168312861AA9293230BF007E
:100350009729831606178312061BBB2983160617D7
:100360008312061BBB29831606178312061BBB29A3
:100370003330BF00A929831686178312861BCD2927
:10038000831686178312861BCD2983168617831240
:10039000861BCD294630BF00BB2983160610831269
:1003A0000614831686108312861083160611831294
:1003B0000615831686118312861583160616831278
:1003C000061AEF29831606168312061AEF298316DA
:1003D00006168312061AEF293430BF00DD29831672
:1003E00086168312861A012A831686168312861AA7
:1003F000012A831686168312861A012A3530BF0019
:10040000EF29831606178312061B132A8316061775
:100410008312061B132A831606178312061B132A40
:100420003630BF00012A831686178312861B252AC1
:10043000831686178312861B252A83168617831236
:10044000861B252A4530BF00132A83160610831207
:1004500006148316861083128614831606118312DF
:1004600006118316861183128615831606168312CB
:10047000061A472A831606168312061A472A831677
:1004800006168312061A472A3730BF00352A83160C
:1004900086168312861A592A831686168312861A9E
:1004A000592A831686168312861A592A3830BF00B5
:1004B000472A831606178312061B6B2A8316061714
:1004C0008312061B6B2A831606178312061B6B2AE0
:1004D0003930BF00592A831686178312861B7D2A5E
:1004E000831686178312861B7D2A8316861783122E
:1004F000861B7D2A4430BF006B2A831606108312A8
:10050000061483168610831286148316061183122E
:10051000061583168611831286118316061683121A
:10052000061A9F2A831606168312061A9F2A831616
:1005300006168312061A9F2A4130BF008D2A8316A1
:1005400086168312861AB12A831686168312861A95
:10055000B12A831686168312861AB12A3030BF005C
:100560009F2A831606178312061BC32A83160617B3
:100570008312061BC32A831606178312061BC32A7F
:100580004230BF00B12A831686178312861BD52AF4
:10059000831686178312861BD52A83168617831225
:1005A000861BD52A4330BF00C32A0800AA010130A8
:1005B000A9002908DF008420AA018030A9002908A9
:1005C000DF008420A8013130A7002708DF00CF20FA
:1005D000A8012D30A7002708DF00CF20A801203078
:1005E000A7002708DF00CF20A8015A30A70027085E
:1005F000DF00CF20A8013130A7002708DF00CF207F
:10060000AA018830A9002908DF008420A80132301F
:10061000A7002708DF00CF20A8012D30A70027085A
:10062000DF00CF20A8012030A7002708DF00CF205F
:10063000A8015A30A7002708DF00CF20A8013230D8
:10064000A7002708DF00CF20AA01C030A900290891
:10065000DF008420A8013330A7002708DF00CF2067
:10066000A8012D30A7002708DF00CF20A8012030E7
:10067000A7002708DF00CF20A8015A30A7002708CD
:10068000DF00CF20A8013330A7002708DF00CF20EC
:10069000AA01C830A9002908DF008420A80142303F
:1006A000A7002708DF00CF20A8012D30A7002708CA
:1006B000DF00CF20A8012030A7002708DF00CF20CF
:1006C000A8015330A7002708DF00CF20A801613020
:1006D000A7002708DF00CF20A8016930A70027085E
:1006E000DF00CF20A8017230A7002708DF00CF204D
:1006F00073213F08313C0319892B3F08323C031911
:10070000892B3F08333C0319892B3F08423C031DCA
:10071000782B3F08DF00CF20AA010130A90029086B
:10072000DF0084203F08F8008A150A12C12DAA01B3
:100730000130A9002908DF0084202E08DC002D08E4
:10074000DB00DE010A30DD00AA207808D2002E0886
:10075000DC002D08DB00DE010A30DD00AA2077086E
:10076000D3003008DC002F08DB00DE010A30DD009A
:10077000AA207808D4003008DC002F08DB00DE0156
:100780000A30DD00AA207708D5002330BF00AA0177
:100790008730A9002908DF008420561456088316E4
:1007A00087008312071CD92B6430E00064200130DD
:1007B000D207D6145608831687008312871CE52BB0
:1007C0006430E00064200130D307561556088316C4
:1007D00087008312071DF12B6430E0006420013094
:1007E000D407D6155608831687008312871DFD2B64
:1007F0006430E00064200130D5075208023C031C3D
:10080000D2015308093C031CD3015408053C031CC6
:10081000D4015508093C031CD5015208023C031DB4
:10082000152C5308033C031CD30130305207A7009A
:10083000A8012708DF00CF2030305307A700A80108
:100840002708DF00CF20A8013A30A7002708DF00E3
:10085000CF2030305407A700A8012708DF00CF20A1
:1008600030305507A700A8012708DF00CF207321EB
:100870003F08433C0319402C3F08423C031DC52B55
:10088000AA010130A9002908DF0084208A150A1274
:10089000CA2DF701F8015B0803105C18F707F70C85
:1008A000F80CDC18F707F70CF80C5C19F707F70CD5
:1008B000F80CDC19F707F70CF80C5C1AF707F70CC3
:1008C000F80CDC1AF707F70CF80C5C1BF707F70CB1
:1008D000F80CDC1BF707F70CF80C08002330BF00FE
:1008E00056145608831687008312071C7C2C64302C
:1008F000E00064200130C007D61456088316870034
:100900008312871C882C6430E00064200130C1070A
:1009100056155608831687008312071D942C6430E1
:10092000E00064200130C207D61556088316870000
:100930008312871DA02C6430E00064200130C307BF
:100940004008023C031CC0014108093C031CC101D2
:100950004208053C031CC2014308093C031CC301B7
:100960004008023C031DB82C4108033C031CC10194
:10097000CD08031DBF2C4C08093C0318C12CCD0128
:10098000CC01AA018030A9002908DF008420A80139
:100990005A30A7002708DF00CF20A8016F30A7003A
:1009A0002708DF00CF20A8016E30A7002708DF004E
:1009B000CF20A8016130A7002708DF00CF20A801C1
:1009C0003130A7002708DF00CF20AA018830A90016
:1009D0002908DF0084204008DB0030305B07A700D7
:1009E000A8012708DF00CF204108DC0030305C0779
:1009F000A700A8012708DF00CF20A8013A30A700F0
:100A00002708DF00CF204208DD0030305D07A70057
:100A1000A8012708DF00CF204308DE0030305E0742
:100A2000A700A8012708DF00CF20AA01C030A90035
:100A30002908DF008420A8015430A7002708DF0020
:100A4000CF20A8015F30A7002708DF00CF20A80132
:100A50005230A7002708DF00CF20A8016530A7008B
:100A60002708DF00CF20A8016730A7002708DF0094
:100A7000CF20A8016130A7002708DF00CF20AA01FE
:100A8000CA30A9002908DF00842030304C07A700B5
:100A90004D08A8000318A80A2708DF00CF207321FB
:100AA0003F08433C0319602D3F08433C0319602D68
:100AB0003F08433C0319602D3F08433C031D6E2C47
:100AC00003178D010313400803178C0083168C1342
:100AD0000C15831203130B08F7008B1383160317EF
:100AE00055308D00AA308D008C148C18752D0C118A
:100AF0007708831203138B04013003178D0003134F
:100B0000410803178C0083168C130C1583120313F2
:100B10000B08F7008B138316031755308D00AA308E
:100B20008D008C148C18922D0C11770883120313EE
:100B30008B04023003178D000313420803178C0047
:100B400083168C130C15831203130B08F7008B13F9
:100B50008316031755308D00AA308D008C148C1825
:100B6000AF2D0C117708831203138B040330031786
:100B70008D000313430803178C0083168C130C1588
:100B8000831203130B08F7008B13831603175530DA
:100B90008D00AA308D008C148C18CC2D0C11770888
:100BA000831203138B04AA01C030A9002908DF00B7
:100BB0008420A8015430A7002708DF00CF20A80117
:100BC0005F30A7002708DF00CF20A8015230A70020
:100BD0002708DF00CF20A8016530A7002708DF0025
:100BE000CF20A8016730A7002708DF00CF20A80189
:100BF0006130A7002708DF00CF20AA01CA30A90072
:100C00002908DF00842056145608831687008312B3
:100C1000071C262E56145608831687008312071CBD
:100C2000262E56145608831687008312071C262E7C
:100C300056145608831687008312071C262E64302C
:100C4000E00064200130CC070318CD0ACD08031D55
:100C50002D2E4C08093C03182F2ECD01CC0130302D
:100C60004C07A7004D08A8000318A80A2708DF00B2
:100C7000CF2073213F08433C03194A2E3F08433CD1
:100C800003194A2E3F08433C03194A2E3F08433CB0
:100C9000031DD32D043003178D0003134C080317D5
:100CA0008C0083168C130C15831203130B08F700AA
:100CB0008B138316031755308D00AA308D008C14CA
:100CC0008C18602E0C117708831203138B048A157D
:040CD0000A12042ED2
:101000002330BF0056145608831687008312071C2E
:1010100010286430E0008A1164208A150130C4076A
:10102000D6145608831687008312871C1E28643046
:10103000E0008A1164208A150130C507561556084C
:10104000831687008312071D2C286430E0008A1164
:1010500064208A150130C607D61556088316870006
:101060008312871D3A286430E0008A1164208A15B3
:101070000130C7074408023C031CC4014508093C71
:10108000031CC5014608053C031CC6014708093C72
:10109000031CC7014408023C031D52284508033CB9
:1010A000031CC501AA018030A9002908DF008A11AC
:1010B00084208A15A8015A30A7002708DF008A116A
:1010C000CF208A15A8016F30A7002708DF008A11FA
:1010D000CF208A15A8016E30A7002708DF008A11EB
:1010E000CF208A15A8016130A7002708DF008A11E8
:1010F000CF208A15A8013230A7002708DF008A1107
:10110000CF208A15AA018830A9002908DF008A119A
:1011100084208A154408DB0030305B07A700A80153
:101120002708DF008A11CF208A154508DC003030FF
:101130005C07A700A8012708DF008A11CF208A15C5
:10114000A8013A30A7002708DF008A11CF208A15AE
:101150004608DD0030305D07A700A8012708DF0042
:101160008A11CF208A154708DE0030305E07A700BD
:10117000A8012708DF008A11CF208A15AA01C030F4
:10118000A9002908DF008A1184208A15A80154309B
:10119000A7002708DF008A11CF208A15A8015F3039
:1011A000A7002708DF008A11CF208A15A801523036
:1011B000A7002708DF008A11CF208A15A801653013
:1011C000A7002708DF008A11CF208A15A801673001
:1011D000A7002708DF008A11CF208A15A8016130F7
:1011E000A7002708DF008A11CF208A15AA01CA307C
:1011F000A9002908DF008A1184208A1530304E07A3
:10120000A7004F08A8000318A80A2708DF008A11C2
:10121000CF208A158A1173218A153F08433C031990
:101220001D293F08433C03191D293F08433C03196E
:101230001D293F08433C031D0028053003178D007E
:101240000313440803178C0083168C130C158312A8
:1012500003130B08F7008B138316031755308D000B
:10126000AA308D008C148C1833290C117708831246
:1012700003138B04063003178D000313450803176F
:101280008C0083168C130C15831203130B08F700C4
:101290008B138316031755308D00AA308D008C14E4
:1012A0008C1850290C117708831203138B04073014
:1012B00003178D000313460803178C0083168C1345
:1012C0000C15831203130B08F7008B1383160317F7
:1012D00055308D00AA308D008C148C186D290C119E
:1012E0007708831203138B040A3003178D0003134E
:1012F000470803178C0083168C130C1583120313F5
:101300000B08F7008B138316031755308D00AA3096
:101310008D008C148C188A290C1177088312031302
:101320008B04AA01C030A9002908DF008A1184209B
:101330008A15A8015430A7002708DF008A11CF20A2
:101340008A15A8015F30A7002708DF008A11CF2087
:101350008A15A8015230A7002708DF008A11CF2084
:101360008A15A8016530A7002708DF008A11CF2061
:101370008A15A8016730A7002708DF008A11CF204F
:101380008A15A8016130A7002708DF008A11CF2045
:101390008A15AA01C930A9002908DF008A11842012
:1013A0008A1556145608831687008312071CE129F4
:1013B0006430E0008A1164208A150130CE070318DA
:1013C000CF0ACF08031DE8294E08093C0318EA2973
:1013D000CF01CE0130304E07A7004F08A8000318F8
:1013E000A80A2708DF008A11CF208A158A117321E5
:1013F0008A153F08433C0319092A3F08433C031957
:10140000092A3F08433C0319092A3F08433C031DAE
:1014100091290B3003178D0003134E0803178C001E
:1014200083168C130C15831203130B08F7008B1310
:101430008316031755308D00AA308D008C148C183C
:101440001F2A0C117708831203138B048A150A12C2
:10145000042E2330BF0056145608831687008312CB
:10146000071C392A6430E0008A1164208A15013093
:10147000C807D6145608831687008312871C472A8C
:101480006430E0008A1164208A150130C9075615BE
:101490005608831687008312071D552A6430E00022
:1014A0008A1164208A150130CA07D615560883169A
:1014B00087008312871D632A6430E0008A1164204C
:1014C0008A150130CB074808023C031CC8014908B3
:1014D000093C031CC9014A08053C031CCA014B080E
:1014E000093C031CCB014808023C031D7B2A490828
:1014F000033C031CC901AA018030A9002908DF00B0
:101500008A1184208A15A8015A30A7002708DF0015
:101510008A11CF208A15A8016F30A7002708DF00A5
:101520008A11CF208A15A8016E30A7002708DF0096
:101530008A11CF208A15A8016130A7002708DF0093
:101540008A11CF208A15A8013130A7002708DF00B3
:101550008A11CF208A15AA018830A9002908DF0046
:101560008A1184208A154808DB0030305B07A70009
:10157000A8012708DF008A11CF208A154908DC005E
:1015800030305C07A700A8012708DF008A11CF20B0
:101590008A15A8013A30A7002708DF008A11CF205A
:1015A0008A154A08DD0030305D07A700A80127082A
:1015B000DF008A11CF208A154B08DE0030305E072D
:1015C000A700A8012708DF008A11CF208A15AA01E9
:1015D000C030A9002908DF008A1184208A15A801DB
:1015E0005430A7002708DF008A11CF208A15A801F0
:1015F0005F30A7002708DF008A11CF208A15A801D5
:101600005230A7002708DF008A11CF208A15A801D1
:101610006530A7002708DF008A11CF208A15A801AE
:101620006730A7002708DF008A11CF208A15A8019C
:101630006130A7002708DF008A11CF208A15AA0190
:10164000CA30A9002908DF008A1184208A153030A9
:101650005007A7005108A8000318A80A2708DF00B0
:101660008A11CF208A158A1173218A153F08433CBD
:101670000319462B3F08433C0319462B3F08433CC4
:101680000319462B3F08433C031D292A0C3003173E
:101690008D000313480803178C0083168C130C1558
:1016A000831203130B08F7008B13831603175530AF
:1016B0008D00AA308D008C148C185C2B0C117708CF
:1016C000831203138B040D3003178D000313490895
:1016D00003178C0083168C130C15831203130B084D
:1016E000F7008B138316031755308D00AA308D0039
:1016F0008C148C18792B0C117708831203138B042C
:101700000E3003178D0003134A0803178C0083164D
:101710008C130C15831203130B08F7008B1383161D
:10172000031755308D00AA308D008C148C18962B21
:101730000C117708831203138B040F3003178D00ED
:1017400003134B0803178C0083168C130C1583129C
:1017500003130B08F7008B138316031755308D0006
:10176000AA308D008C148C18B32B0C1177088312BF
:1017700003138B04AA01C030A9002908DF008A11D5
:1017800084208A15A8015430A7002708DF008A1199
:10179000CF208A15A8015F30A7002708DF008A1133
:1017A000CF208A15A8015230A7002708DF008A1130
:1017B000CF208A15A8016530A7002708DF008A110D
:1017C000CF208A15A8016730A7002708DF008A11FB
:1017D000CF208A15A8016130A7002708DF008A11F1
:1017E000CF208A15AA01CA30A9002908DF008A1172
:1017F00084208A1556145608831687008312071C06
:10180000092C6430E0008A1164208A15D00A03197B
:10181000D10AD108031D102C5008093C0318122CC2
:10182000D101D00130305007A7005108A80003189B
:10183000A80A2708DF008A11CF208A158A11732190
:101840008A153F08433C0319312C3F08433C0319D8
:10185000312C3F08433C0319312C3F08433C031D06
:10186000BA2B103003178D000313500803178C0098
:1018700083168C130C15831203130B08F7008B13BC
:101880008316031755308D00AA308D008C148C18E8
:10189000472C0C117708831203138B048A150A1244
:1018A000042E840183131F30830581308316990031
:1018B000A6309800903083129800AC01AB01AE01C5
:1018C000AD01B001AF01B201B101B401B301B60184
:1018D000B501B801B701BA01B901BC01BB01BE0134
:1018E000BD010230C0000330C1000530C200093024
:1018F000C3000230C4000330C5000530C600093003
:10190000C7000230C8000330C9000530CA000930E2
:10191000CB00CD010230CC00CF01CE00D101D000F0
:1019200083161F149F141F159F1107309C00FF3052
:101930008312D600D801D901DA0183168113F03061
:101940008600003088008A1183128F288A1583163A
:101950000108C03981001F109F141F159F151F1308
:1019600083121F179F1783169F1783121F148B163E
:10197000C0308B0403178D0183168C130C14831253
:101980000C080313C000013003178D0083168C135D
:101990000C1483120C080313C100023003178D00CE
:1019A00083168C130C1483120C080313C20003302B
:1019B00003178D0083168C130C1483120C08031369
:1019C000C300043003178D0083168C130C1483128C
:1019D0000C080313CD01CC00053003178D008316CE
:1019E0008C130C1483120C080313C4000630031765
:1019F0008D0083168C130C1483120C080313C5007E
:101A0000073003178D0083168C130C1483120C08F7
:101A10000313C6000A3003178D0083168C130C14B1
:101A200083120C080313C7000B3003178D008316B5
:101A30008C130C1483120C080313CF01CE000C304E
:101A400003178D0083168C130C1483120C080313D8
:101A5000C8000D3003178D0083168C130C148312ED
:101A60000C080313C9000E3003178D0083168C1366
:101A70000C1483120C080313CA000F3003178D00D7
:101A800083168C130C1483120C080313CB00103034
:101A900003178D0083168C130C1483120C08031388
:101AA000D101D0008A11DA288A15AA01C030A90014
:101AB0002908DF008A1184208A15A8014130A70077
:101AC0002708DF008A11CF208A15AA01C230A90099
:101AD0002908DF008A1184208A15A8014530A70053
:101AE0002708DF008A11CF208A152330BF00831614
:101AF000061083120614831686108312861083162E
:101B00000611831206158316861183128615831615
:101B100086178312861B992D831686178312861BC0
:101B2000992D831686178312861B992D4530BF0089
:101B3000872D8316061083120614831686108312CF
:101B400086148316061183120615831686118312D6
:101B50008611831606168312061ABB2D83160616E7
:101B60008312061ABB2D831606168312061ABB2D86
:101B70004130BF00A92D3F08413C031DC42D8A11EF
:101B8000D62A8A157808D7003F08453C031DE52D65
:101B90008A11972B8A153F08433C031DE52D5208F7
:101BA000DB000A30DC008A1149248A1553087807C3
:101BB000AD00AE015408DB000A30DC008A11492474
:101BC0008A1555087807AF00B0013F08313C03196A
:101BD000F12D3F08323C0319F12D3F08333C031D22
:101BE0000C2E5708313A0319FC2D033A0319002E25
:101BF000013A0319022E042E8A116E2C8A15042E26
:101C00000028042E292A042EAA010130A90029083F
:101C1000DF008A1184208A1540083502031D622ED8
:101C2000B608031D622E41083302031D622EB4085C
:101C3000031D622E42083902031D622EBA08031DDD
:101C4000622E43083702031D622EB808031D622E60
:101C500083160511831205150130D800AA018B30B7
:101C6000A9002908DF008A1184208A15A8015A30AA
:101C7000A7002708DF008A11CF208A15A80131307C
:101C8000A7002708DF008A11CF208A15A8014F304E
:101C9000A7002708DF008A11CF208A15A8016E301F
:101CA000A7002708DF008A11CF208A1530304C07A3
:101CB000A7004D08A8000318A80A2708DF008A110A
:101CC000CF208A1543084C07F8004D08FA00031886
:101CD000FA0A78083702031D762E7A083802031DA7
:101CE000762E8316051183120511D801D808031D1D
:101CF000AD2EAA018B30A9002908DF008A118420AB
:101D00008A15A8015A30A7002708DF008A11CF20C2
:101D10008A15A8013130A7002708DF008A11CF20DB
:101D20008A15A8014F30A7002708DF008A11CF20AD
:101D30008A15A8016630A7002708DF008A11CF2086
:101D40008A1530304C07A7004D08A8000318A80AD0
:101D50002708DF008A11CF208A1544083502031DA9
:101D6000032FB608031D032F45083302031D032F5D
:101D7000B408031D032F46083902031D032FBA08B8
:101D8000031D032F47083702031D032FB808031D47
:101D9000032F83168511831285150130D900AA01FE
:101DA000C530A9002908DF008A1184208A15A801FE
:101DB0005A30A7002708DF008A11CF208A15A80112
:101DC0003230A7002708DF008A11CF208A15A8012A
:101DD0004F30A7002708DF008A11CF208A15A801FD
:101DE0006E30A7002708DF008A11CF208A15303017
:101DF0004E07A7004F08A8000318A80A2708DF000D
:101E00008A11CF208A1547084E07F8004F08FA00BC
:101E10000318FA0A78083702031D172F7A083802C8
:101E2000031D172F8316851183128511D901D90837
:101E3000031D4E2FAA01C530A9002908DF008A1111
:101E400084208A15A8015A30A7002708DF008A11CC
:101E5000CF208A15A8013230A7002708DF008A1199
:101E6000CF208A15A8014F30A7002708DF008A116C
:101E7000CF208A15A8016630A7002708DF008A1145
:101E8000CF208A1530304E07A7004F08A80003184E
:101E9000A80A2708DF008A11CF208A1548083502D2
:101EA000031DA62FB608031DA62F49083302031DE4
:101EB000A62FB408031DA62F4A083902031DA62F1A
:101EC000BA08031DA62F4B083702031DA62FB8081A
:101ED000031DA62F56125608831687008312071675
:101EE0000130DA00AA01CB30A9002908DF008A11ED
:101EF00084208A15A8015A30A7002708DF008A111C
:101F0000CF208A15A8013330A7002708DF008A11E7
:101F1000CF208A15A8014F30A7002708DF008A11BB
:101F2000CF208A15A8016E30A7002708DF008A118C
:101F3000CF208A1530305007A7005108A800031899
:101F4000A80A2708DF008A11CF208A154B085007FE
:101F5000F8005108FA000318FA0A78083702031D3E
:101F6000BC2F7A083802031DBC2F56125608831660
:101F7000870083120712DA01DA08031DF32FAA0182
:101F8000CB30A9002908DF008A1184208A15A80116
:101F90005A30A7002708DF008A11CF208A15A80130
:101FA0003330A7002708DF008A11CF208A15A80147
:101FB0004F30A7002708DF008A11CF208A15A8011B
:101FC0006630A7002708DF008A11CF208A1530303D
:101FD0005007A7005108A8000318A80A2708DF0027
:0A1FE0008A11CF208A15522D6300EC
:02400E007A3FF7
:00000001FF
;PIC16F877A
;CRC=A3A7  CREATED="03-set-23 17:46"
